{
  "contractName": "Election",
  "abi": [
    {
      "inputs": [],
      "stateMutability": "nonpayable",
      "type": "constructor"
    },
    {
      "inputs": [
        {
          "internalType": "uint256",
          "name": "",
          "type": "uint256"
        }
      ],
      "name": "candidate",
      "outputs": [
        {
          "internalType": "uint256",
          "name": "tdp",
          "type": "uint256"
        },
        {
          "internalType": "uint256",
          "name": "ycp",
          "type": "uint256"
        },
        {
          "internalType": "uint256",
          "name": "jsp",
          "type": "uint256"
        },
        {
          "internalType": "uint256",
          "name": "bjp",
          "type": "uint256"
        },
        {
          "internalType": "uint256",
          "name": "cng",
          "type": "uint256"
        },
        {
          "internalType": "uint256",
          "name": "nota",
          "type": "uint256"
        }
      ],
      "stateMutability": "view",
      "type": "function",
      "constant": true
    },
    {
      "inputs": [],
      "name": "voterCount",
      "outputs": [
        {
          "internalType": "uint256",
          "name": "",
          "type": "uint256"
        }
      ],
      "stateMutability": "view",
      "type": "function",
      "constant": true
    },
    {
      "inputs": [
        {
          "internalType": "string",
          "name": "",
          "type": "string"
        }
      ],
      "name": "voters",
      "outputs": [
        {
          "internalType": "string",
          "name": "name",
          "type": "string"
        },
        {
          "internalType": "uint256",
          "name": "age",
          "type": "uint256"
        },
        {
          "internalType": "string",
          "name": "ano",
          "type": "string"
        },
        {
          "internalType": "string",
          "name": "password",
          "type": "string"
        },
        {
          "internalType": "bool",
          "name": "voted",
          "type": "bool"
        }
      ],
      "stateMutability": "view",
      "type": "function",
      "constant": true
    },
    {
      "inputs": [],
      "name": "getVoterCount",
      "outputs": [
        {
          "internalType": "uint256",
          "name": "",
          "type": "uint256"
        }
      ],
      "stateMutability": "view",
      "type": "function",
      "constant": true
    },
    {
      "inputs": [
        {
          "internalType": "string",
          "name": "_name",
          "type": "string"
        },
        {
          "internalType": "uint256",
          "name": "_age",
          "type": "uint256"
        },
        {
          "internalType": "string",
          "name": "_vid",
          "type": "string"
        },
        {
          "internalType": "string",
          "name": "_ano",
          "type": "string"
        },
        {
          "internalType": "string",
          "name": "_password",
          "type": "string"
        }
      ],
      "name": "addVoter",
      "outputs": [],
      "stateMutability": "nonpayable",
      "type": "function"
    },
    {
      "inputs": [
        {
          "internalType": "string",
          "name": "_vid",
          "type": "string"
        }
      ],
      "name": "getVoterDetails",
      "outputs": [
        {
          "components": [
            {
              "internalType": "string",
              "name": "name",
              "type": "string"
            },
            {
              "internalType": "uint256",
              "name": "age",
              "type": "uint256"
            },
            {
              "internalType": "string",
              "name": "ano",
              "type": "string"
            },
            {
              "internalType": "string",
              "name": "password",
              "type": "string"
            },
            {
              "internalType": "bool",
              "name": "voted",
              "type": "bool"
            }
          ],
          "internalType": "struct Election.Voter",
          "name": "",
          "type": "tuple"
        }
      ],
      "stateMutability": "view",
      "type": "function",
      "constant": true
    },
    {
      "inputs": [
        {
          "internalType": "string",
          "name": "str",
          "type": "string"
        }
      ],
      "name": "mlaVote",
      "outputs": [],
      "stateMutability": "nonpayable",
      "type": "function"
    },
    {
      "inputs": [
        {
          "internalType": "string",
          "name": "str",
          "type": "string"
        }
      ],
      "name": "mpVote",
      "outputs": [],
      "stateMutability": "nonpayable",
      "type": "function"
    },
    {
      "inputs": [],
      "name": "getMla",
      "outputs": [
        {
          "components": [
            {
              "internalType": "uint256",
              "name": "tdp",
              "type": "uint256"
            },
            {
              "internalType": "uint256",
              "name": "ycp",
              "type": "uint256"
            },
            {
              "internalType": "uint256",
              "name": "jsp",
              "type": "uint256"
            },
            {
              "internalType": "uint256",
              "name": "bjp",
              "type": "uint256"
            },
            {
              "internalType": "uint256",
              "name": "cng",
              "type": "uint256"
            },
            {
              "internalType": "uint256",
              "name": "nota",
              "type": "uint256"
            }
          ],
          "internalType": "struct Election.Candidate",
          "name": "",
          "type": "tuple"
        }
      ],
      "stateMutability": "view",
      "type": "function",
      "constant": true
    },
    {
      "inputs": [],
      "name": "getMp",
      "outputs": [
        {
          "components": [
            {
              "internalType": "uint256",
              "name": "tdp",
              "type": "uint256"
            },
            {
              "internalType": "uint256",
              "name": "ycp",
              "type": "uint256"
            },
            {
              "internalType": "uint256",
              "name": "jsp",
              "type": "uint256"
            },
            {
              "internalType": "uint256",
              "name": "bjp",
              "type": "uint256"
            },
            {
              "internalType": "uint256",
              "name": "cng",
              "type": "uint256"
            },
            {
              "internalType": "uint256",
              "name": "nota",
              "type": "uint256"
            }
          ],
          "internalType": "struct Election.Candidate",
          "name": "",
          "type": "tuple"
        }
      ],
      "stateMutability": "view",
      "type": "function",
      "constant": true
    }
  ],
  "bytecode": "0x608060405234801561001057600080fd5b506000600181905550611a79806100286000396000f3fe608060405234801561001057600080fd5b506004361061009e5760003560e01c806376874a7d1161006657806376874a7d146101665780638ce3103e146101965780639a5e4cd9146101b2578063dc11559c146101d0578063ec88cd16146101ec5761009e565b806306de29a3146100a357806311174a29146100c15780631de43c4b146100df57806342169e481461011457806353fa2e6414610132575b600080fd5b6100ab610208565b6040516100b89190611070565b60405180910390f35b6100c9610275565b6040516100d6919061109a565b60405180910390f35b6100f960048036038101906100f491906110f5565b61027f565b60405161010b96959493929190611122565b60405180910390f35b61011c6102c1565b604051610129919061109a565b60405180910390f35b61014c600480360381019061014791906112c9565b6102c7565b60405161015d9594939291906113b5565b60405180910390f35b610180600480360381019061017b91906112c9565b6104b8565b60405161018d91906114fa565b60405180910390f35b6101b060048036038101906101ab91906112c9565b6106cb565b005b6101ba6109ad565b6040516101c79190611070565b60405180910390f35b6101ea60048036038101906101e591906112c9565b610a1a565b005b6102066004803603810190610201919061151c565b610cfc565b005b610210610ed2565b600260006002811061022557610224611607565b5b600602016040518060c00160405290816000820154815260200160018201548152602001600282015481526020016003820154815260200160048201548152602001600582015481525050905090565b6000600154905090565b6002816002811061028f57600080fd5b600602016000915090508060000154908060010154908060020154908060030154908060040154908060050154905086565b60015481565b60008180516020810182018051848252602083016020850120818352809550505050505060009150905080600001805461030090611665565b80601f016020809104026020016040519081016040528092919081815260200182805461032c90611665565b80156103795780601f1061034e57610100808354040283529160200191610379565b820191906000526020600020905b81548152906001019060200180831161035c57829003601f168201915b50505050509080600101549080600201805461039490611665565b80601f01602080910402602001604051908101604052809291908181526020018280546103c090611665565b801561040d5780601f106103e25761010080835404028352916020019161040d565b820191906000526020600020905b8154815290600101906020018083116103f057829003601f168201915b50505050509080600301805461042290611665565b80601f016020809104026020016040519081016040528092919081815260200182805461044e90611665565b801561049b5780601f106104705761010080835404028352916020019161049b565b820191906000526020600020905b81548152906001019060200180831161047e57829003601f168201915b5050505050908060040160009054906101000a900460ff16905085565b6104c0610f08565b6000826040516104d091906116d2565b90815260200160405180910390206040518060a00160405290816000820180546104f990611665565b80601f016020809104026020016040519081016040528092919081815260200182805461052590611665565b80156105725780601f1061054757610100808354040283529160200191610572565b820191906000526020600020905b81548152906001019060200180831161055557829003601f168201915b505050505081526020016001820154815260200160028201805461059590611665565b80601f01602080910402602001604051908101604052809291908181526020018280546105c190611665565b801561060e5780601f106105e35761010080835404028352916020019161060e565b820191906000526020600020905b8154815290600101906020018083116105f157829003601f168201915b5050505050815260200160038201805461062790611665565b80601f016020809104026020016040519081016040528092919081815260200182805461065390611665565b80156106a05780601f10610675576101008083540402835291602001916106a0565b820191906000526020600020905b81548152906001019060200180831161068357829003601f168201915b505050505081526020016004820160009054906101000a900460ff1615151515815250509050919050565b806040516020016106dc91906116d2565b6040516020818303038152906040528051906020012060405160200161070190611735565b604051602081830303815290604052805190602001200361075357600260006002811061073157610730611607565b5b60060201600001600081548092919061074990611779565b91905055506109aa565b8060405160200161076491906116d2565b604051602081830303815290604052805190602001206040516020016107899061180d565b60405160208183030381529060405280519060200120036107db5760026000600281106107b9576107b8611607565b5b6006020160010160008154809291906107d190611779565b91905055506109a9565b806040516020016107ec91906116d2565b604051602081830303815290604052805190602001206040516020016108119061186e565b604051602081830303815290604052805190602001200361086357600260006002811061084157610840611607565b5b60060201600201600081548092919061085990611779565b91905055506109a8565b8060405160200161087491906116d2565b60405160208183030381529060405280519060200120604051602001610899906118cf565b60405160208183030381529060405280519060200120036108eb5760026000600281106108c9576108c8611607565b5b6006020160030160008154809291906108e190611779565b91905055506109a7565b806040516020016108fc91906116d2565b6040516020818303038152906040528051906020012060405160200161092190611930565b604051602081830303815290604052805190602001200361097357600260006002811061095157610950611607565b5b60060201600401600081548092919061096990611779565b91905055506109a6565b600260006002811061098857610987611607565b5b6006020160050160008154809291906109a090611779565b91905055505b5b5b5b5b50565b6109b5610ed2565b60026001600281106109ca576109c9611607565b5b600602016040518060c00160405290816000820154815260200160018201548152602001600282015481526020016003820154815260200160048201548152602001600582015481525050905090565b80604051602001610a2b91906116d2565b60405160208183030381529060405280519060200120604051602001610a5090611735565b6040516020818303038152906040528051906020012003610aa2576002600160028110610a8057610a7f611607565b5b600602016000016000815480929190610a9890611779565b9190505550610cf9565b80604051602001610ab391906116d2565b60405160208183030381529060405280519060200120604051602001610ad89061180d565b6040516020818303038152906040528051906020012003610b2a576002600160028110610b0857610b07611607565b5b600602016001016000815480929190610b2090611779565b9190505550610cf8565b80604051602001610b3b91906116d2565b60405160208183030381529060405280519060200120604051602001610b609061186e565b6040516020818303038152906040528051906020012003610bb2576002600160028110610b9057610b8f611607565b5b600602016002016000815480929190610ba890611779565b9190505550610cf7565b80604051602001610bc391906116d2565b60405160208183030381529060405280519060200120604051602001610be8906118cf565b6040516020818303038152906040528051906020012003610c3a576002600160028110610c1857610c17611607565b5b600602016003016000815480929190610c3090611779565b9190505550610cf6565b80604051602001610c4b91906116d2565b60405160208183030381529060405280519060200120604051602001610c7090611930565b6040516020818303038152906040528051906020012003610cc2576002600160028110610ca057610c9f611607565b5b600602016004016000815480929190610cb890611779565b9190505550610cf5565b6002600160028110610cd757610cd6611607565b5b600602016005016000815480929190610cef90611779565b91905055505b5b5b5b5b50565b828460128111610d41576040517f08c379a0000000000000000000000000000000000000000000000000000000008152600401610d38906119b7565b60405180910390fd5b60008083604051610d5291906116d2565b90815260200160405180910390206000018054610d6e90611665565b905014610db0576040517f08c379a0000000000000000000000000000000000000000000000000000000008152600401610da790611a23565b60405180910390fd5b86600086604051610dc191906116d2565b90815260200160405180910390206000019080519060200190610de5929190610f39565b5085600086604051610df791906116d2565b90815260200160405180910390206001018190555083600086604051610e1d91906116d2565b90815260200160405180910390206002019080519060200190610e41929190610f39565b5082600086604051610e5391906116d2565b90815260200160405180910390206003019080519060200190610e77929190610f39565b5060008086604051610e8991906116d2565b908152602001604051809103902060040160006101000a81548160ff02191690831515021790555060016000815480929190610ec490611779565b919050555050505050505050565b6040518060c001604052806000815260200160008152602001600081526020016000815260200160008152602001600081525090565b6040518060a00160405280606081526020016000815260200160608152602001606081526020016000151581525090565b828054610f4590611665565b90600052602060002090601f016020900481019282610f675760008555610fae565b82601f10610f8057805160ff1916838001178555610fae565b82800160010185558215610fae579182015b82811115610fad578251825591602001919060010190610f92565b5b509050610fbb9190610fbf565b5090565b5b80821115610fd8576000816000905550600101610fc0565b5090565b6000819050919050565b610fef81610fdc565b82525050565b60c08201600082015161100b6000850182610fe6565b50602082015161101e6020850182610fe6565b5060408201516110316040850182610fe6565b5060608201516110446060850182610fe6565b5060808201516110576080850182610fe6565b5060a082015161106a60a0850182610fe6565b50505050565b600060c0820190506110856000830184610ff5565b92915050565b61109481610fdc565b82525050565b60006020820190506110af600083018461108b565b92915050565b6000604051905090565b600080fd5b600080fd5b6110d281610fdc565b81146110dd57600080fd5b50565b6000813590506110ef816110c9565b92915050565b60006020828403121561110b5761110a6110bf565b5b6000611119848285016110e0565b91505092915050565b600060c082019050611137600083018961108b565b611144602083018861108b565b611151604083018761108b565b61115e606083018661108b565b61116b608083018561108b565b61117860a083018461108b565b979650505050505050565b600080fd5b600080fd5b6000601f19601f8301169050919050565b7f4e487b7100000000000000000000000000000000000000000000000000000000600052604160045260246000fd5b6111d68261118d565b810181811067ffffffffffffffff821117156111f5576111f461119e565b5b80604052505050565b60006112086110b5565b905061121482826111cd565b919050565b600067ffffffffffffffff8211156112345761123361119e565b5b61123d8261118d565b9050602081019050919050565b82818337600083830152505050565b600061126c61126784611219565b6111fe565b90508281526020810184848401111561128857611287611188565b5b61129384828561124a565b509392505050565b600082601f8301126112b0576112af611183565b5b81356112c0848260208601611259565b91505092915050565b6000602082840312156112df576112de6110bf565b5b600082013567ffffffffffffffff8111156112fd576112fc6110c4565b5b6113098482850161129b565b91505092915050565b600081519050919050565b600082825260208201905092915050565b60005b8381101561134c578082015181840152602081019050611331565b8381111561135b576000848401525b50505050565b600061136c82611312565b611376818561131d565b935061138681856020860161132e565b61138f8161118d565b840191505092915050565b60008115159050919050565b6113af8161139a565b82525050565b600060a08201905081810360008301526113cf8188611361565b90506113de602083018761108b565b81810360408301526113f08186611361565b905081810360608301526114048185611361565b905061141360808301846113a6565b9695505050505050565b600082825260208201905092915050565b600061143982611312565b611443818561141d565b935061145381856020860161132e565b61145c8161118d565b840191505092915050565b6114708161139a565b82525050565b600060a0830160008301518482036000860152611493828261142e565b91505060208301516114a86020860182610fe6565b50604083015184820360408601526114c0828261142e565b915050606083015184820360608601526114da828261142e565b91505060808301516114ef6080860182611467565b508091505092915050565b600060208201905081810360008301526115148184611476565b905092915050565b600080600080600060a08688031215611538576115376110bf565b5b600086013567ffffffffffffffff811115611556576115556110c4565b5b6115628882890161129b565b9550506020611573888289016110e0565b945050604086013567ffffffffffffffff811115611594576115936110c4565b5b6115a08882890161129b565b935050606086013567ffffffffffffffff8111156115c1576115c06110c4565b5b6115cd8882890161129b565b925050608086013567ffffffffffffffff8111156115ee576115ed6110c4565b5b6115fa8882890161129b565b9150509295509295909350565b7f4e487b7100000000000000000000000000000000000000000000000000000000600052603260045260246000fd5b7f4e487b7100000000000000000000000000000000000000000000000000000000600052602260045260246000fd5b6000600282049050600182168061167d57607f821691505b6020821081036116905761168f611636565b5b50919050565b600081905092915050565b60006116ac82611312565b6116b68185611696565b93506116c681856020860161132e565b80840191505092915050565b60006116de82846116a1565b915081905092915050565b7f7464700000000000000000000000000000000000000000000000000000000000600082015250565b600061171f600383611696565b915061172a826116e9565b600382019050919050565b600061174082611712565b9150819050919050565b7f4e487b7100000000000000000000000000000000000000000000000000000000600052601160045260246000fd5b600061178482610fdc565b91507fffffffffffffffffffffffffffffffffffffffffffffffffffffffffffffffff82036117b6576117b561174a565b5b600182019050919050565b7f7963700000000000000000000000000000000000000000000000000000000000600082015250565b60006117f7600383611696565b9150611802826117c1565b600382019050919050565b6000611818826117ea565b9150819050919050565b7f6a73700000000000000000000000000000000000000000000000000000000000600082015250565b6000611858600383611696565b915061186382611822565b600382019050919050565b60006118798261184b565b9150819050919050565b7f626a700000000000000000000000000000000000000000000000000000000000600082015250565b60006118b9600383611696565b91506118c482611883565b600382019050919050565b60006118da826118ac565b9150819050919050565b7f636e670000000000000000000000000000000000000000000000000000000000600082015250565b600061191a600383611696565b9150611925826118e4565b600382019050919050565b600061193b8261190d565b9150819050919050565b7f41676520646f65736e2774206d6565742074686520726571756972656d656e7460008201527f7320746f20766f74650000000000000000000000000000000000000000000000602082015250565b60006119a160298361131d565b91506119ac82611945565b604082019050919050565b600060208201905081810360008301526119d081611994565b9050919050565b7f566f74657220616c726561647920657869737473000000000000000000000000600082015250565b6000611a0d60148361131d565b9150611a18826119d7565b602082019050919050565b60006020820190508181036000830152611a3c81611a00565b905091905056fea2646970667358221220f2bf3bb44d5261a4a21d2ef918e423dee84c15235a3f79401a4f1135462cb0e864736f6c634300080d0033",
  "immutableReferences": {},
  "source": "// SPDX-License-Identifier: MIT\r\npragma solidity ^0.8.10;\r\n\r\ncontract Election {\r\n\r\n    struct Voter {\r\n        string name;\r\n        uint age;\r\n        string ano;\r\n        string password;\r\n        bool voted;\r\n    }\r\n    \r\n    mapping (string => Voter) public voters;\r\n    uint public voterCount;\r\n\r\n    constructor() {\r\n        voterCount = 0; \r\n    }\r\n\r\n    function getVoterCount() public view returns(uint){\r\n        return voterCount;\r\n    }\r\n\r\n    modifier validVoter(string memory _vid, uint _age) {\r\n        require(_age > 18, \"Age doesn't meet the requirements to vote\");\r\n        require(bytes(voters[_vid].name).length == 0, \"Voter already exists\");\r\n        _;\r\n    }   \r\n\r\n    function addVoter(string memory _name, uint _age, string memory _vid, string memory _ano, string memory _password) public validVoter(_vid, _age) {\r\n        voters[_vid].name = _name;\r\n        voters[_vid].age = _age;\r\n        voters[_vid].ano = _ano;\r\n        voters[_vid].password = _password;\r\n        voters[_vid].voted = false;\r\n        voterCount++;\r\n    }\r\n\r\n    function getVoterDetails(string memory _vid) public view returns(Voter memory){\r\n        return voters[_vid];\r\n    }\r\n\r\n    modifier checkVoted(string memory _vid) {\r\n        require(bytes(voters[_vid].name).length != 0, \"Voter does not exist\");\r\n        require(voters[_vid].voted == false, \"Already voted\");\r\n        _;\r\n    }\r\n\r\n    struct Candidate{\r\n        uint tdp;\r\n        uint ycp;\r\n        uint jsp;\r\n        uint bjp;\r\n        uint cng;\r\n        uint nota;\r\n    }\r\n    \r\n    Candidate[2] public candidate;\r\n\r\n    function mlaVote(string memory str) public {\r\n        if (keccak256(abi.encodePacked(\"tdp\")) == keccak256(abi.encodePacked(str))) {\r\n            candidate[0].tdp++;\r\n        }else if(keccak256(abi.encodePacked(\"ycp\")) == keccak256(abi.encodePacked(str))){\r\n            candidate[0].ycp++;\r\n        }else if(keccak256(abi.encodePacked(\"jsp\")) == keccak256(abi.encodePacked(str))){\r\n            candidate[0].jsp++;\r\n        }else if(keccak256(abi.encodePacked(\"bjp\")) == keccak256(abi.encodePacked(str))){\r\n            candidate[0].bjp++;\r\n        }else if(keccak256(abi.encodePacked(\"cng\")) == keccak256(abi.encodePacked(str))){\r\n            candidate[0].cng++;\r\n        }else{\r\n            candidate[0].nota++;\r\n        }\r\n    }\r\n\r\n    function mpVote(string memory str) public {\r\n        if (keccak256(abi.encodePacked(\"tdp\")) == keccak256(abi.encodePacked(str))) {\r\n            candidate[1].tdp++;\r\n        }else if(keccak256(abi.encodePacked(\"ycp\")) == keccak256(abi.encodePacked(str))){\r\n            candidate[1].ycp++;\r\n        }else if(keccak256(abi.encodePacked(\"jsp\")) == keccak256(abi.encodePacked(str))){\r\n            candidate[1].jsp++;\r\n        }else if(keccak256(abi.encodePacked(\"bjp\")) == keccak256(abi.encodePacked(str))){\r\n            candidate[1].bjp++;\r\n        }else if(keccak256(abi.encodePacked(\"cng\")) == keccak256(abi.encodePacked(str))){\r\n            candidate[1].cng++;\r\n        }else{\r\n            candidate[1].nota++;\r\n        }\r\n    }\r\n\r\n    function getMla() public view returns(Candidate memory){\r\n        return candidate[0];\r\n    }\r\n\r\n    function getMp() public view returns(Candidate memory){\r\n        return candidate[1];\r\n    }\r\n\r\n}",
  "sourcePath": "C:\\Users\\haman\\OneDrive\\Desktop\\VotingDapp\\backend\\contracts\\election.sol",
  "compiler": {
    "name": "solc",
    "version": "0.8.13+commit.abaa5c0e.Emscripten.clang"
  },
  "schemaVersion": "3.4.16",
  "updatedAt": "2024-07-17T07:49:26.071Z",
  "networkType": "ethereum",
  "devdoc": {
    "kind": "dev",
    "methods": {},
    "version": 1
  },
  "userdoc": {
    "kind": "user",
    "methods": {},
    "version": 1
  }
}