{
  "contractName": "Election",
  "abi": [
    {
      "inputs": [],
      "stateMutability": "nonpayable",
      "type": "constructor"
    },
    {
      "inputs": [
        {
          "internalType": "string",
          "name": "",
          "type": "string"
        },
        {
          "internalType": "string",
          "name": "",
          "type": "string"
        },
        {
          "internalType": "string",
          "name": "",
          "type": "string"
        }
      ],
      "name": "parties",
      "outputs": [
        {
          "internalType": "string",
          "name": "partyName",
          "type": "string"
        },
        {
          "internalType": "string",
          "name": "candidateName",
          "type": "string"
        },
        {
          "internalType": "uint256",
          "name": "voteCount",
          "type": "uint256"
        }
      ],
      "stateMutability": "view",
      "type": "function",
      "constant": true
    },
    {
      "inputs": [],
      "name": "voterCount",
      "outputs": [
        {
          "internalType": "uint256",
          "name": "",
          "type": "uint256"
        }
      ],
      "stateMutability": "view",
      "type": "function",
      "constant": true
    },
    {
      "inputs": [
        {
          "internalType": "string",
          "name": "",
          "type": "string"
        }
      ],
      "name": "voters",
      "outputs": [
        {
          "internalType": "string",
          "name": "name",
          "type": "string"
        },
        {
          "internalType": "uint256",
          "name": "age",
          "type": "uint256"
        },
        {
          "internalType": "string",
          "name": "ano",
          "type": "string"
        },
        {
          "internalType": "string",
          "name": "password",
          "type": "string"
        },
        {
          "internalType": "bool",
          "name": "voted",
          "type": "bool"
        }
      ],
      "stateMutability": "view",
      "type": "function",
      "constant": true
    },
    {
      "inputs": [],
      "name": "getVoterCount",
      "outputs": [
        {
          "internalType": "uint256",
          "name": "",
          "type": "uint256"
        }
      ],
      "stateMutability": "view",
      "type": "function",
      "constant": true
    },
    {
      "inputs": [
        {
          "internalType": "string",
          "name": "_name",
          "type": "string"
        },
        {
          "internalType": "uint256",
          "name": "_age",
          "type": "uint256"
        },
        {
          "internalType": "string",
          "name": "_vid",
          "type": "string"
        },
        {
          "internalType": "string",
          "name": "_ano",
          "type": "string"
        },
        {
          "internalType": "string",
          "name": "_password",
          "type": "string"
        }
      ],
      "name": "addVoter",
      "outputs": [],
      "stateMutability": "nonpayable",
      "type": "function"
    },
    {
      "inputs": [
        {
          "internalType": "string",
          "name": "_vid",
          "type": "string"
        }
      ],
      "name": "getVoterDetails",
      "outputs": [
        {
          "components": [
            {
              "internalType": "string",
              "name": "name",
              "type": "string"
            },
            {
              "internalType": "uint256",
              "name": "age",
              "type": "uint256"
            },
            {
              "internalType": "string",
              "name": "ano",
              "type": "string"
            },
            {
              "internalType": "string",
              "name": "password",
              "type": "string"
            },
            {
              "internalType": "bool",
              "name": "voted",
              "type": "bool"
            }
          ],
          "internalType": "struct Election.Voter",
          "name": "",
          "type": "tuple"
        }
      ],
      "stateMutability": "view",
      "type": "function",
      "constant": true
    },
    {
      "inputs": [
        {
          "internalType": "string",
          "name": "_symbol",
          "type": "string"
        },
        {
          "internalType": "string",
          "name": "location",
          "type": "string"
        },
        {
          "internalType": "string",
          "name": "position",
          "type": "string"
        }
      ],
      "name": "isParty",
      "outputs": [
        {
          "internalType": "bool",
          "name": "",
          "type": "bool"
        }
      ],
      "stateMutability": "view",
      "type": "function",
      "constant": true
    },
    {
      "inputs": [
        {
          "internalType": "string",
          "name": "_name",
          "type": "string"
        },
        {
          "internalType": "string",
          "name": "_symbol",
          "type": "string"
        },
        {
          "internalType": "string",
          "name": "_partyName",
          "type": "string"
        },
        {
          "internalType": "string",
          "name": "location",
          "type": "string"
        },
        {
          "internalType": "string",
          "name": "position",
          "type": "string"
        }
      ],
      "name": "addParty",
      "outputs": [],
      "stateMutability": "nonpayable",
      "type": "function"
    },
    {
      "inputs": [
        {
          "internalType": "string",
          "name": "_symbol",
          "type": "string"
        },
        {
          "internalType": "string",
          "name": "location",
          "type": "string"
        },
        {
          "internalType": "string",
          "name": "position",
          "type": "string"
        }
      ],
      "name": "getVoteCount",
      "outputs": [
        {
          "internalType": "uint256",
          "name": "",
          "type": "uint256"
        }
      ],
      "stateMutability": "view",
      "type": "function",
      "constant": true
    },
    {
      "inputs": [
        {
          "internalType": "string",
          "name": "_vid",
          "type": "string"
        },
        {
          "internalType": "string",
          "name": "_symbol",
          "type": "string"
        },
        {
          "internalType": "string",
          "name": "location",
          "type": "string"
        },
        {
          "internalType": "string",
          "name": "position",
          "type": "string"
        }
      ],
      "name": "castVote",
      "outputs": [],
      "stateMutability": "nonpayable",
      "type": "function"
    }
  ],
  "bytecode": "0x608060405234801561001057600080fd5b5060006001819055506119b6806100286000396000f3fe608060405234801561001057600080fd5b506004361061009e5760003560e01c806376874a7d1161006657806376874a7d1461016157806390ac2ab414610191578063acc84cde146101c1578063ea28c887146101dd578063ec88cd161461020d5761009e565b806311174a29146100a3578063234ee111146100c15780632f8e53a0146100dd57806342169e481461010f57806353fa2e641461012d575b600080fd5b6100ab610229565b6040516100b89190610e41565b60405180910390f35b6100db60048036038101906100d69190610fb6565b610233565b005b6100f760048036038101906100f2919061108d565b610412565b604051610106939291906111bc565b60405180910390f35b6101176105a8565b6040516101249190610e41565b60405180910390f35b61014760048036038101906101429190611201565b6105ae565b604051610158959493929190611265565b60405180910390f35b61017b60048036038101906101769190611201565b61079f565b60405161018891906113b9565b60405180910390f35b6101ab60048036038101906101a6919061108d565b6109b2565b6040516101b89190610e41565b60405180910390f35b6101db60048036038101906101d691906113db565b610a17565b005b6101f760048036038101906101f2919061108d565b610b0a565b60405161020491906114e2565b60405180910390f35b61022760048036038101906102229190611529565b610b7e565b005b6000600154905090565b83600080826040516102459190611650565b9081526020016040518091039020600001805461026190611696565b9050036102a3576040517f08c379a000000000000000000000000000000000000000000000000000000000815260040161029a90611713565b60405180910390fd5b600015156000826040516102b79190611650565b908152602001604051809103902060040160009054906101000a900460ff16151514610318576040517f08c379a000000000000000000000000000000000000000000000000000000000815260040161030f9061177f565b60405180910390fd5b610323848484610b0a565b610362576040517f08c379a0000000000000000000000000000000000000000000000000000000008152600401610359906117eb565b60405180910390fd5b60016000866040516103749190611650565b908152602001604051809103902060040160006101000a81548160ff0219169083151502179055506002836040516103ac9190611650565b9081526020016040518091039020826040516103c89190611650565b9081526020016040518091039020846040516103e49190611650565b908152602001604051809103902060020160008154809291906104069061183a565b91905055505050505050565b6002838051602081018201805184825260208301602085012081835280955050505050508280516020810182018051848252602083016020850120818352809550505050505081805160208101820180518482526020830160208501208183528095505050505050600092509250505080600001805461049190611696565b80601f01602080910402602001604051908101604052809291908181526020018280546104bd90611696565b801561050a5780601f106104df5761010080835404028352916020019161050a565b820191906000526020600020905b8154815290600101906020018083116104ed57829003601f168201915b50505050509080600101805461051f90611696565b80601f016020809104026020016040519081016040528092919081815260200182805461054b90611696565b80156105985780601f1061056d57610100808354040283529160200191610598565b820191906000526020600020905b81548152906001019060200180831161057b57829003601f168201915b5050505050908060020154905083565b60015481565b6000818051602081018201805184825260208301602085012081835280955050505050506000915090508060000180546105e790611696565b80601f016020809104026020016040519081016040528092919081815260200182805461061390611696565b80156106605780601f1061063557610100808354040283529160200191610660565b820191906000526020600020905b81548152906001019060200180831161064357829003601f168201915b50505050509080600101549080600201805461067b90611696565b80601f01602080910402602001604051908101604052809291908181526020018280546106a790611696565b80156106f45780601f106106c9576101008083540402835291602001916106f4565b820191906000526020600020905b8154815290600101906020018083116106d757829003601f168201915b50505050509080600301805461070990611696565b80601f016020809104026020016040519081016040528092919081815260200182805461073590611696565b80156107825780601f1061075757610100808354040283529160200191610782565b820191906000526020600020905b81548152906001019060200180831161076557829003601f168201915b5050505050908060040160009054906101000a900460ff16905085565b6107a7610d54565b6000826040516107b79190611650565b90815260200160405180910390206040518060a00160405290816000820180546107e090611696565b80601f016020809104026020016040519081016040528092919081815260200182805461080c90611696565b80156108595780601f1061082e57610100808354040283529160200191610859565b820191906000526020600020905b81548152906001019060200180831161083c57829003601f168201915b505050505081526020016001820154815260200160028201805461087c90611696565b80601f01602080910402602001604051908101604052809291908181526020018280546108a890611696565b80156108f55780601f106108ca576101008083540402835291602001916108f5565b820191906000526020600020905b8154815290600101906020018083116108d857829003601f168201915b5050505050815260200160038201805461090e90611696565b80601f016020809104026020016040519081016040528092919081815260200182805461093a90611696565b80156109875780601f1061095c57610100808354040283529160200191610987565b820191906000526020600020905b81548152906001019060200180831161096a57829003601f168201915b505050505081526020016004820160009054906101000a900460ff1615151515815250509050919050565b60006002836040516109c49190611650565b9081526020016040518091039020826040516109e09190611650565b9081526020016040518091039020846040516109fc9190611650565b90815260200160405180910390206002015490509392505050565b610a22848383610b0a565b610b035784600283604051610a379190611650565b908152602001604051809103902082604051610a539190611650565b908152602001604051809103902085604051610a6f9190611650565b90815260200160405180910390206001019080519060200190610a93929190610d85565b5082600283604051610aa59190611650565b908152602001604051809103902082604051610ac19190611650565b908152602001604051809103902085604051610add9190611650565b90815260200160405180910390206000019080519060200190610b01929190610d85565b505b5050505050565b600080600284604051610b1d9190611650565b908152602001604051809103902083604051610b399190611650565b908152602001604051809103902085604051610b559190611650565b90815260200160405180910390206000018054610b7190611696565b9050141590509392505050565b828460128111610bc3576040517f08c379a0000000000000000000000000000000000000000000000000000000008152600401610bba906118f4565b60405180910390fd5b60008083604051610bd49190611650565b90815260200160405180910390206000018054610bf090611696565b905014610c32576040517f08c379a0000000000000000000000000000000000000000000000000000000008152600401610c2990611960565b60405180910390fd5b86600086604051610c439190611650565b90815260200160405180910390206000019080519060200190610c67929190610d85565b5085600086604051610c799190611650565b90815260200160405180910390206001018190555083600086604051610c9f9190611650565b90815260200160405180910390206002019080519060200190610cc3929190610d85565b5082600086604051610cd59190611650565b90815260200160405180910390206003019080519060200190610cf9929190610d85565b5060008086604051610d0b9190611650565b908152602001604051809103902060040160006101000a81548160ff02191690831515021790555060016000815480929190610d469061183a565b919050555050505050505050565b6040518060a00160405280606081526020016000815260200160608152602001606081526020016000151581525090565b828054610d9190611696565b90600052602060002090601f016020900481019282610db35760008555610dfa565b82601f10610dcc57805160ff1916838001178555610dfa565b82800160010185558215610dfa579182015b82811115610df9578251825591602001919060010190610dde565b5b509050610e079190610e0b565b5090565b5b80821115610e24576000816000905550600101610e0c565b5090565b6000819050919050565b610e3b81610e28565b82525050565b6000602082019050610e566000830184610e32565b92915050565b6000604051905090565b600080fd5b600080fd5b600080fd5b600080fd5b6000601f19601f8301169050919050565b7f4e487b7100000000000000000000000000000000000000000000000000000000600052604160045260246000fd5b610ec382610e7a565b810181811067ffffffffffffffff82111715610ee257610ee1610e8b565b5b80604052505050565b6000610ef5610e5c565b9050610f018282610eba565b919050565b600067ffffffffffffffff821115610f2157610f20610e8b565b5b610f2a82610e7a565b9050602081019050919050565b82818337600083830152505050565b6000610f59610f5484610f06565b610eeb565b905082815260208101848484011115610f7557610f74610e75565b5b610f80848285610f37565b509392505050565b600082601f830112610f9d57610f9c610e70565b5b8135610fad848260208601610f46565b91505092915050565b60008060008060808587031215610fd057610fcf610e66565b5b600085013567ffffffffffffffff811115610fee57610fed610e6b565b5b610ffa87828801610f88565b945050602085013567ffffffffffffffff81111561101b5761101a610e6b565b5b61102787828801610f88565b935050604085013567ffffffffffffffff81111561104857611047610e6b565b5b61105487828801610f88565b925050606085013567ffffffffffffffff81111561107557611074610e6b565b5b61108187828801610f88565b91505092959194509250565b6000806000606084860312156110a6576110a5610e66565b5b600084013567ffffffffffffffff8111156110c4576110c3610e6b565b5b6110d086828701610f88565b935050602084013567ffffffffffffffff8111156110f1576110f0610e6b565b5b6110fd86828701610f88565b925050604084013567ffffffffffffffff81111561111e5761111d610e6b565b5b61112a86828701610f88565b9150509250925092565b600081519050919050565b600082825260208201905092915050565b60005b8381101561116e578082015181840152602081019050611153565b8381111561117d576000848401525b50505050565b600061118e82611134565b611198818561113f565b93506111a8818560208601611150565b6111b181610e7a565b840191505092915050565b600060608201905081810360008301526111d68186611183565b905081810360208301526111ea8185611183565b90506111f96040830184610e32565b949350505050565b60006020828403121561121757611216610e66565b5b600082013567ffffffffffffffff81111561123557611234610e6b565b5b61124184828501610f88565b91505092915050565b60008115159050919050565b61125f8161124a565b82525050565b600060a082019050818103600083015261127f8188611183565b905061128e6020830187610e32565b81810360408301526112a08186611183565b905081810360608301526112b48185611183565b90506112c36080830184611256565b9695505050505050565b600082825260208201905092915050565b60006112e982611134565b6112f381856112cd565b9350611303818560208601611150565b61130c81610e7a565b840191505092915050565b61132081610e28565b82525050565b61132f8161124a565b82525050565b600060a083016000830151848203600086015261135282826112de565b91505060208301516113676020860182611317565b506040830151848203604086015261137f82826112de565b9150506060830151848203606086015261139982826112de565b91505060808301516113ae6080860182611326565b508091505092915050565b600060208201905081810360008301526113d38184611335565b905092915050565b600080600080600060a086880312156113f7576113f6610e66565b5b600086013567ffffffffffffffff81111561141557611414610e6b565b5b61142188828901610f88565b955050602086013567ffffffffffffffff81111561144257611441610e6b565b5b61144e88828901610f88565b945050604086013567ffffffffffffffff81111561146f5761146e610e6b565b5b61147b88828901610f88565b935050606086013567ffffffffffffffff81111561149c5761149b610e6b565b5b6114a888828901610f88565b925050608086013567ffffffffffffffff8111156114c9576114c8610e6b565b5b6114d588828901610f88565b9150509295509295909350565b60006020820190506114f76000830184611256565b92915050565b61150681610e28565b811461151157600080fd5b50565b600081359050611523816114fd565b92915050565b600080600080600060a0868803121561154557611544610e66565b5b600086013567ffffffffffffffff81111561156357611562610e6b565b5b61156f88828901610f88565b955050602061158088828901611514565b945050604086013567ffffffffffffffff8111156115a1576115a0610e6b565b5b6115ad88828901610f88565b935050606086013567ffffffffffffffff8111156115ce576115cd610e6b565b5b6115da88828901610f88565b925050608086013567ffffffffffffffff8111156115fb576115fa610e6b565b5b61160788828901610f88565b9150509295509295909350565b600081905092915050565b600061162a82611134565b6116348185611614565b9350611644818560208601611150565b80840191505092915050565b600061165c828461161f565b915081905092915050565b7f4e487b7100000000000000000000000000000000000000000000000000000000600052602260045260246000fd5b600060028204905060018216806116ae57607f821691505b6020821081036116c1576116c0611667565b5b50919050565b7f566f74657220646f6573206e6f74206578697374000000000000000000000000600082015250565b60006116fd60148361113f565b9150611708826116c7565b602082019050919050565b6000602082019050818103600083015261172c816116f0565b9050919050565b7f416c726561647920766f74656400000000000000000000000000000000000000600082015250565b6000611769600d8361113f565b915061177482611733565b602082019050919050565b600060208201905081810360008301526117988161175c565b9050919050565b7f506172747920646f6573206e6f74206578697374000000000000000000000000600082015250565b60006117d560148361113f565b91506117e08261179f565b602082019050919050565b60006020820190508181036000830152611804816117c8565b9050919050565b7f4e487b7100000000000000000000000000000000000000000000000000000000600052601160045260246000fd5b600061184582610e28565b91507fffffffffffffffffffffffffffffffffffffffffffffffffffffffffffffffff82036118775761187661180b565b5b600182019050919050565b7f41676520646f65736e2774206d6565742074686520726571756972656d656e7460008201527f7320746f20766f74650000000000000000000000000000000000000000000000602082015250565b60006118de60298361113f565b91506118e982611882565b604082019050919050565b6000602082019050818103600083015261190d816118d1565b9050919050565b7f566f74657220616c726561647920657869737473000000000000000000000000600082015250565b600061194a60148361113f565b915061195582611914565b602082019050919050565b600060208201905081810360008301526119798161193d565b905091905056fea26469706673582212205d63b8c8114fbc218d0e779ee319acb3ccfee2d12901b342d8bf3e9c2a9f90c364736f6c634300080d0033",
  "immutableReferences": {},
  "source": "// SPDX-License-Identifier: MIT\r\npragma solidity ^0.8.10;\r\n\r\ncontract Election {\r\n\r\n    struct Voter {\r\n        string name;\r\n        uint age;\r\n        string ano;\r\n        string password;\r\n        bool voted;\r\n    }\r\n    \r\n    mapping (string => Voter) public voters;\r\n    uint public voterCount;\r\n\r\n    constructor() {\r\n        voterCount = 0; \r\n    }\r\n\r\n    function getVoterCount() public view returns(uint){\r\n        return voterCount;\r\n    }\r\n\r\n    modifier validVoter(string memory _vid, uint _age) {\r\n        require(_age > 18, \"Age doesn't meet the requirements to vote\");\r\n        require(bytes(voters[_vid].name).length == 0, \"Voter already exists\");\r\n        _;\r\n    }   \r\n\r\n    function addVoter(string memory _name, uint _age, string memory _vid, string memory _ano, string memory _password) public validVoter(_vid, _age) {\r\n        voters[_vid].name = _name;\r\n        voters[_vid].age = _age;\r\n        voters[_vid].ano = _ano;\r\n        voters[_vid].password = _password;\r\n        voters[_vid].voted = false;\r\n        voterCount++;\r\n    }\r\n\r\n    function getVoterDetails(string memory _vid) public view returns(Voter memory){\r\n        return voters[_vid];\r\n    }\r\n\r\n    modifier checkVoted(string memory _vid) {\r\n        require(bytes(voters[_vid].name).length != 0, \"Voter does not exist\");\r\n        require(voters[_vid].voted == false, \"Already voted\");\r\n        _;\r\n    }\r\n\r\n\r\n    struct Candidate {\r\n        string partyName;\r\n        string candidateName;\r\n        uint voteCount;\r\n    }\r\n\r\n    mapping(string => mapping(string => mapping(string => Candidate))) public parties;\r\n\r\n    function isParty(string memory _symbol, string memory location, string memory position) public view returns(bool) {\r\n        return (bytes(parties[location][position][_symbol].partyName).length != 0);\r\n    }\r\n\r\n    function addParty(string memory _name, string memory _symbol, string memory _partyName, string memory location, string memory position) public{\r\n        if(isParty( _symbol, location, position))\r\n            return;\r\n        parties[location][position][_symbol].candidateName = _name;\r\n        parties[location][position][_symbol].partyName = _partyName;        \r\n    }\r\n\r\n    function getVoteCount(string memory _symbol, string memory location, string memory position) public view returns(uint) {\r\n        return parties[location][position][_symbol].voteCount;\r\n    }\r\n\r\n    function castVote(string memory _vid, string memory _symbol, string memory location, string memory position) public checkVoted(_vid) {\r\n        require(isParty(_symbol, location, position), \"Party does not exist\");\r\n        voters[_vid].voted = true;\r\n        parties[location][position][_symbol].voteCount++;\r\n    }\r\n}\r\n",
  "sourcePath": "C:\\Users\\haman\\OneDrive\\Desktop\\VotingDapp\\backend\\contracts\\election.sol",
  "compiler": {
    "name": "solc",
    "version": "0.8.13+commit.abaa5c0e.Emscripten.clang"
  },
  "schemaVersion": "3.4.16",
  "updatedAt": "2024-07-14T17:50:24.849Z",
  "networkType": "ethereum",
  "devdoc": {
    "kind": "dev",
    "methods": {},
    "version": 1
  },
  "userdoc": {
    "kind": "user",
    "methods": {},
    "version": 1
  }
}